:020000040800F2
:10000000400800209D010008EF3000082928000862
:10001000ED30000889090008353D000800000000A7
:100020000000000000000000000000004131000856
:100030003D0A000800000000F1300008D535000836
:10004000B7010008B7010008B7010008B7010008B0
:10005000B7010008B7010008B7010008B7010008A0
:10006000AD0E0008B7010008B30E00088D090008A6
:10007000B7010008B7010008B7010008B701000880
:10008000B7010008B7010008B7010008B701000870
:10009000B7010008B7010008B7010008B701000860
:1000A000B7010008B7010008B7010008B701000850
:1000B000B7010008B7010008B7010008B701000840
:1000C000B7010008B7010008B7010008B701000830
:1000D000B7010008B7010008993B0008B13B0008D0
:1000E000B7010008B7010008B7010008B701000810
:1000F000B7010008B7010008B7010008B701000800
:10010000B7010008B7010008B7010008B7010008EF
:10011000B7010008B7010008B7010008B7010008DF
:10012000B7010008B7010008B7010008B7010008CF
:10013000B7010008B7010008B7010008B7010008BF
:10014000B7010008B7010008B7010008B7010008AF
:10015000B7010008B7010008B7010008B70100089F
:10016000B7010008B7010008B7010008B70100088F
:10017000B7010008B7010008B7010008000000003F
:10018000B7010008B7010008DFF80CD000F0AEFBA3
:1001900000480047B9590008400800200648804739
:1001A00006480047FEE7FEE7FEE7FEE7FEE7FEE75C
:1001B000FEE7FEE7FEE7FEE75D360008890100087E
:1001C0002DE9F05F0546002092469B46884606468C
:1001D000814640241BE0284641464746224600F01F
:1001E0003DFA53465A46C01A914110D3114618465B
:1001F000224600F024FA2D1A67EB01084F462246EA
:100200000120002100F01BFA17EB00094E41201ECF
:10021000A4F10104DFDC484631462A464346BDE8E6
:10022000F09F40EA01039B0703D009E008C9121FB1
:1002300008C0042AFAD203E011F8013B00F8013BA0
:10024000521EF9D27047D2B201E000F8012B491ECC
:10025000FBD270470022F6E710B513460A46044663
:100260001946FFF7F0FF204610BD421C10F8011B95
:100270000029FBD1801A7047034611F8012B00F8C2
:10028000012B002AF9D1184670472DE9FE4F804610
:1002900081EA0300C00F0C46009021F0004123F0DA
:1002A0000045B8EB0200A94105D2404621469046E0
:1002B0001C460B46024623F00040104347D0270D52
:1002C000C7F30A00C3F30A510290401A0190402874
:1002D0006BDAC3F3130040F4801B0098924620B100
:1002E0000023D2EB030A63EB0B0B01985946C0F1D4
:1002F0004002504600F0A3F906460D4650465946C6
:10030000019A00F0BBF910EB08006141002487EA74
:10031000115284EAE7731A4340D0009A62B3019AFB
:10032000012A4FEA075215DC001B61EB02014FF076
:10033000004202EA0752CDE90042001C41F580115B
:1003400032462B4600F0F2F903B0BDE8F08F40468C
:100350002146F9E7001B61EB0201001C41F5801307
:1003600000185B412018A2F5001747EB030140EA93
:10037000D570B6196D4111E06D084FEA360645EAB1
:10038000C0754FEA0752001B61EB0201001C41F5EA
:10039000801149084FEA30000019514132462B467E
:1003A00003B0BDE8F04F00F0B2B900980122400060
:1003B0000023D0EB020263EBE073009821464FEA82
:1003C000E074B8EB000061EB0401E9E783F000435F
:1003D0005BE781F0004158E72DE9FE4F81EA030415
:1003E00004F0004421F0004100944FF0000B23F092
:1003F000004350EA01045ED052EA03045BD0C3F329
:100400000A54C1F30A552C44A4F2F3340194A0FB1E
:100410000254C1F3130141F48011C3F3130343F4F5
:10042000801301FB024400FB034E840A970A44EA4E
:10043000815447EA8357A4FB076802958D0A05FBA0
:1004400007854FEA932C04FB0C542705029D4FEAC5
:10045000065847EA1637B5EB08056EEB070C870E12
:10046000920E47EA811742EA8312A7FB0201B6EB1C
:100470000B0164EB00042B0D43EA0C335E1844EBD4
:100480001C50DA465146E7FB0201C5F313044FEA5C
:100490000B3343EA14534FEA0432019C43EA060348
:1004A000A4F10C040294009CCDE900B400F03EF9E4
:1004B00003B0BDE8F08F00200146F9E72DE9F04DCB
:1004C00081EA030404F0004B21F0004514464FF08C
:1004D000000A23F0004150EA050220D054EA01024C
:1004E0001DD0C5F30A570246C5F31303C1F3130029
:1004F000C1F30A5640F4801543F48013A7EB0608B5
:10050000101BD64608F2FD3873EB050002D308F144
:10051000010801E092185B41B8F1000F03DA0020F6
:100520000146BDE8F08D00204FF480110646844658
:100530000EE0171B73EB050705D3121B63EB0503D6
:1005400006434CEA010C49084FEA300092185B411F
:1005500050EA0107EDD152EA030012D082EA04000A
:1005600083EA0501084305D0101BAB4106D20122E6
:10057000002306E000224FF0004302E06FF001028A
:1005800053101AEB06004CEB085110EB0A0041EB3C
:100590000B01BDE8F04D00F0BAB80EB540F23341A2
:1005A00002910021CDE900110A460B4600F0BEF889
:1005B00003B000BD00F0004230F000400AD0C10D91
:1005C00001F56071C0F3160042EA0151C20840070C
:1005D0001143704700200146704701F0004330B4DA
:1005E00021F0004150EA010206D00A0DA2F5607226
:1005F000C1F31301002A02DC30BC00207047440F15
:1006000044EAC104C100E01830BC00EBC25000F065
:1006100047B830B50B46014600202022012409E0EE
:1006200021FA02F59D4205D303FA02F5491B04FAAB
:1006300002F52844151EA2F10102F1DC30BD202A8A
:1006400004DB203A00FA02F1002070479140C2F129
:10065000200320FA03F3194390407047202A04DB5B
:10066000203A21FA02F00021704721FA02F3D0402B
:10067000C2F120029140084319467047202A06DB48
:10068000CB17203A41FA02F043EAE07306E041FA60
:1006900002F3D040C2F1200291400843194670474E
:1006A0000029A8BF7047401C490008BF20F0010086
:1006B000704710B4B0FA80FC00FA0CF050EA010464
:1006C00004BF10BC704749B1CCF1200421FA04F4F6
:1006D00011FA0CF118BF012121430843A3EB0C01CF
:1006E000CB1D4FEA00614FEA102042BF002010BC32
:1006F000704700EBC35010440029A4BF10BC7047E2
:10070000401C490008BF20F0010010BC704710B524
:10071000141E73F1000408DA401C41F10001921824
:100720005B411A4301D120F0010010BD2DE9F04DCD
:1007300092469B4611B1B1FA81F202E0B0FA80F222
:1007400020329046FFF77BFF04460F4640EA0A003E
:1007500041EA0B0153465A46084313D0114653EA67
:10076000010019D0C8F140025046FFF777FF054657
:100770000E46504659464246FFF761FF084305D0F2
:10078000012004E020463946BDE8F08D00200543F5
:1007900046EAE0762C4337430A986305E40AA0EB67
:1007A00008000022FD0A44EA47540A3002D500201E
:1007B0000146E9E7010510196941DDE9084500191D
:1007C0006941BDE8F04DA2E770B521F00043034355
:1007D0000CD0C1F30A550024D5EB040564EB0403E7
:1007E000D617AD1AB34102DB0020014670BD2018B8
:1007F00041EB025170BD2DE9F04D00231A461B1A42
:100800008A4103DB00200146BDE8F08DC1F30A52A6
:10081000C1F3130141F480154FF0000BD10702D151
:1008200000186D41521E0027044640F2FF11384661
:1008300001EB620A3E468046024600204FF48011DA
:10084000FFF70CFFC2197141BB1846EB0100B4EB76
:10085000030C75EB000C04D3E41A65EB0005174696
:100860000E46241908F101006D4180463428E3DD6D
:10087000F91946EB0600091BA84103D24FF0FF32DD
:10088000134601E0002213461BEB070046EB0A511A
:10089000BDE8F04DFFF73BBF0EB5C10F80EAE07039
:1008A0000844CA07002140F233438DE80E000A468F
:1008B0000B46FFF73BFF03B000BD000030B5041E40
:1008C00071F1000404DB4FF00044404264EB01018D
:1008D000141E73F1000405DB1C464FF00043524226
:1008E00063EB0403994208BF904230BD064C074DAC
:1008F00006E0E06840F0010394E8070098471034F0
:10090000AC42F6D3FFF744FC40670008606700087C
:1009100070B5C1F30A5201F000450024C1F3130180
:1009200040F2FF3341F480119A4201DA002070BD99
:1009300040F233439A42A2F2334203DC5242FFF7C1
:100940008DFE00E090402C43F1D0404270BD30B5A8
:100950008C1810F8012B12F00F0301D110F8013B95
:10096000120906D110F8012B03E010F8015B01F821
:10097000015B5B1EF9D101E001F8013B521EFBD186
:10098000A142E6D3002030BDFEE70000014800F0A0
:10099000A9BA0000DC03002001681823CAB2103A8B
:1009A000B2FBF3F2054B6FF30901032A9B5CC365AD
:1009B00000D9091D81650846704700006E65000872
:1009C00010B5014600208B698A6A4FF0C07453B19C
:1009D000B3F5005F15D072B1012A0CD0022A0AD0FB
:1009E000032A09D104E01AB1012A06D0022A03D150
:1009F000C96AC90100D5012010BDC96AA142FAD057
:100A000010BD002AF7D0012AF2D0022AF3D0032A1F
:100A1000F3D010BD30B50468256825F48025256025
:100A2000046863608368402B036803D099600068A2
:100A3000C26030BD9A600068C16030BD7047000080
:100A40002DE9F043504C814695B001201E461746D3
:100A50008846E06002F04EFB4CA15148FFF70CFCC9
:100A6000494650A003F02CF920780028FCD000253E
:100A700025704FA14A48FFF7FFFB49464FA003F0FE
:100A80001FF920780028FCD02570012E02D0022EFC
:100A900032D05DE04BA14248FFF7EEFB49464FA044
:100AA00003F00EF920780028FCD025704FA13C48B7
:100AB000FFF7E2FB3B46424651A1684603F03CF992
:100AC0004946684603F0FCF820780028FCD02570E1
:100AD00051A13348FFF7D0FB494653A003F0F0F88B
:100AE00020780028FCD025703AA12D48FFF7C4FBE0
:100AF00020780028FCD02AE04EA12948FFF7BCFB53
:100B0000494652A003F0DCF820780028FCD025707C
:100B100052A12348FFF7B0FB49465BA003F0D0F891
:100B200020780028FCD0257060A11D48FFF7A4FBA9
:100B300049463DA003F0C4F820780028FCD0257079
:100B400024A11748FFF798FB20780028FCD02570D7
:100B50005AA11348FFF790FB49465EA003F0B0F896
:100B600020780028FCD025705EA10D48FFF784FB9B
:100B7000494663A003F0A4F820780028FCD0257033
:100B8000E56015B0BDE8F0830000002057494649F4
:100B900020434F4E4E45435445440D0A000000008B
:100BA0006401002041542B5253540D0A00000000F0
:100BB00041540D0D0A0D0A4F4B0D0A0041540D0A08
:100BC0000000000041542B43574D4F44453D310D2B
:100BD0000D0A0D0A4F4B0D0A0000000041542B4333
:100BE000574D4F44453D310D0A00000057494649D5
:100BF00020474F542049500D0A0D0A4F4B0D0A0053
:100C000041542B43574A41503D222573222C222523
:100C100073220D0A0000000043494653523A5354D0
:100C20004149502C2200000041542B434946535265
:100C30000D0A000041542B43574D4F44453D330DA1
:100C40000D0A0D0A4F4B0D0A0000000041542B43C2
:100C5000574D4F44453D330D0A00000041542B438E
:100C6000575341503D224553502D3031222C2231D3
:100C700032333474657374222C31312C330D0D0AE8
:100C80000D0A4F4B0D0A000041542B43575341505E
:100C90003D224553502D3031222C223132333474D1
:100CA000657374222C31312C330D0A0043494653AD
:100CB000523A415049502C220000000041542B432D
:100CC00049504D55583D310D0D0A0D0A4F4B0D0A37
:100CD0000000000041542B4349504D55583D310D03
:100CE0000A00000041542B43495053455256455287
:100CF0003D312C38300D0D0A0D0A4F4B0D0A000006
:100D000041542B4349505345525645523D312C389E
:100D1000300D0A002DE9F05F8946017800250A9E12
:100D2000574C1F4690460570072922D006297DD0D2
:100D300001297CD00229FCD00329FAD06078002850
:100D400015D0606930B100F075FB6169401A216906
:100D50000844206100F06EFB60612069C82806D954
:100D600033463A464146484602F086FB2561BDE8D7
:100D7000F09F444E00221021304600F055FB002227
:100D80002021304600F050FB71153F4E00223046C6
:100D900000F04AFB00223115304600F045FB3B4E87
:100DA00000274FF480584FF400594FF4804A4FF415
:100DB000004B4146304600F030FB642000F004FA5E
:100DC0004946304600F029FB642000F0FDF9514609
:100DD000304600F022FB642000F0F6F95946304618
:100DE00000F01BFB642000F0EFF97F1C052FE0DB17
:100DF0002D48012326A229A10068FFF721FE002724
:100E00004146304600F009FB4946304600F005FBFC
:100E10005146304600F001FB5946304600F0FDFADD
:100E20004FF4FA7000F0D0F97F1C01E017E01EE0EB
:100E3000052FE5DB00224146304600F0F5FA00229E
:100E40004946304600F0F0FA00225146304600F0A4
:100E5000EBFA00225946304600F0E6FA05E0334648
:100E60003A464146484602F007FB65707FE7334645
:100E70003A464146484602F0FFFA0120607060E7BA
:100E8000000000200000024000100240000C024060
:100E9000313530313037303634370000534B5F57FF
:100EA000694669383135410064000020042000F0B3
:100EB000C7B9102000F0C4B9704790F83510022966
:100EC00003D08021416501207047052180F835104D
:100ED0000068016821F00101016000207047406D49
:100EE000704700002DE9F84304464FF00009CDF8A3
:100EF000009063484FF41651A56D0068B0FBF1F700
:100F00002E6894F85C10082000FA01F131420FD0ED
:100F100021680A6852070BD50A6822F004020A60A9
:100F200094F85C108840A860606D40F00100606536
:100F300094F85C104FF0010808FA01F0304208D034
:100F400021684969090604D5A860606D40F0020077
:100F5000606594F85C1004208840304208D0216815
:100F60000968890704D5A860606D40F004006065D9
:100F700094F85C1010208840304218D0216809682D
:100F8000090714D5A86020680168490304D50068E2
:100F9000000308D5A16C07E00168C90503D4016806
:100FA00021F008010160216C09B12046884794F8BE
:100FB0005C1020208840304231D021680968C90681
:100FC0002DD5A86094F8350005282068016806D062
:100FD000490347D5006800031DD4616C1CE021F073
:100FE000160101602068416921F080014161206C97
:100FF00008B9A06C20B12068016821F008010160E7
:1010000094F85C103F208840A86084F8349084F8FD
:101010003580216D1FE0E16B09B120468847606D86
:1010200000282BD0606DC00714D0052084F835004F
:101030002068016821F0010101600098401C0090C7
:10104000B84203D820680068C007F6D184F834900D
:1010500084F83580E16C002910D001B02046BDE84D
:10106000F04308470168C905D5D4016821F0100193
:10107000016084F8349084F83580CCE7BDE8F883CB
:101080005C0100202DE9F041044600F0D3F906464A
:101090005CB1002584F83450022084F835002068C3
:1010A000016821F0010101600DE00120BDE8F0813F
:1010B00000F0C0F9801B052805D9202060650320B9
:1010C00084F83500F2E720680068C007F0D1226894
:1010D000116820480140D4E901031843D4E90336DC
:1010E0003343184363691843A3691843E3691843FA
:1010F000236A18430843616A042903D1D4E90B1316
:1011000019430843106020684069666A20F00701AF
:1011100030460E43012704280CD1A06A0643E06A3A
:1011200040B12046FFF74CFC20B14020606584F8B8
:101130003570BAE7206846612046FFF72DFC94F829
:101140005C203F2191408160656584F83570002006
:10115000ACE700003F8010F02DE9F0410446866DB9
:1011600090F83400002501280DD0012084F83400C7
:1011700094F835700020012F07D084F83400022540
:101180002846BDE8F0810220FBE7022784F835708D
:1011900060652046FFF73EFC94F85C103F208840D5
:1011A000B0602068016841F016010160206C20B138
:1011B0002068016841F0080101602068016841F081
:1011C00001010160DCE7000070B5044600F032F96F
:1011D0000546601C02D004480078044400F02AF957
:1011E000401BA042FAD370BD5001002010B5124A36
:1011F000124C04280CD0102809D12021104600F0F0
:1012000007F9A0B1012802D16069401C606110BDDE
:101210000821104600F0FCF828B10128F7D1206918
:10122000401C206110BDE068401CE06010BDA0695A
:10123000401CA06110BD0000001002405C000020B6
:10124000044910B50A68024202D00860FFF7CEFFD9
:1012500010BD0000143C01402DE9F84F00224FF072
:10126000010803254FF00F0E0B6808FA02F4234023
:10127000A3426ED14E68012E05D0022E03D0112E4E
:1012800001D0122E12D186684FEA420C05FA0CF7F3
:10129000BE43CF6807FA0CF7374387604668A6431A
:1012A0000C79C4F30014944034434460C66857007A
:1012B00005FA07FC8C6826EA0C06BC403443C4607F
:1012C0004C68022C01D0122C13D1D40800EB8404FA
:1012D000A346D4F8209054074FEAD46A0EFA0AF6CF
:1012E00029EA06090E6906FA0AF646EA0906CBF863
:1012F000206006680C7926EA0C0604F00304BC4062
:10130000344304604C68E40065D5364C266846F4E6
:1013100080462660246822F0030604F4804400948A
:10132000314C3444A446D4F808489607370F0EFAD7
:1013300007F6B4432D4EB04201D1002624E02C4ED6
:10134000B04201D101261FE02A4EB04202D102264E
:101350001AE040E0284EB04201D1032614E0274EA7
:10136000B04201D104260FE0254EB04201D105263E
:101370000AE0244EB04201D1062605E0224EB042DA
:1013800001D1072600E00826BE402643CCF80868B5
:101390001E4E34684F689C43FF0300D51C433460E5
:1013A0001A4C241D26684F689E43BF0300D51E4378
:1013B0002660164E083634684F689C43FF0200D5FD
:1013C0001C433460114E0C3634684F689C43BF0296
:1013D00000D51C433460521C102AFFF445AFBDE811
:1013E000F88F000044380240003001400000024005
:1013F0000004024000080240000C024000100240BD
:101400000014024000180240001C0240003C014051
:101410000069084000D001207047426931EA0202A9
:1014200000D10904816170470AB1816170470904E4
:10143000FBE7000001488068704700005001002071
:101440007047000070B5040025D094F83D000025D9
:1014500020B984F83C50204600F064FB242084F836
:101460003D002068016821F00101016020680168E9
:1014700041F4004101602068016821F400410160ED
:1014800000F0D6FC4D4A6168914201D84C4900E019
:101490004C49884201D2012070BD4B492368B0FB02
:1014A000F1F15E6826F03F060E435E60636893428A
:1014B00006D94FF4967359434FF47A73B1FBF3F1A5
:1014C0002368491C1E6A26F03F0631431962616891
:1014D000914210D84900401EB0FBF1F2521CC2F3F9
:1014E0000B02042A01D2042022E0B0FBF1F0401CE0
:1014F000C0F30B001CE0A268F2B301EBC10303EBE5
:101500000116431EB3FBF6F35B1C43F480431B053B
:1015100049D092B301EBC10202EB0111401EB0FBB6
:10152000F1F0401CC0F30B0040F4804040F4004058
:101530002168CA694CF6FF739A431043C861D4E925
:10154000071001432068026822F0C00211430160C5
:10155000D4E9030101432068826848F2FF339A43CB
:1015600011438160D4E9050108432168CA6822F06B
:10157000FF021043C86001E00EE016E02068016839
:1015800041F0010101602564202084F83D002563BD
:1015900084F83E50002070BD01EB4106431EB3FBB2
:1015A000F6F35B1CB3E70120C2E701EB4101401EEB
:1015B000B0FBF1F0401CC0F30B00B7E7A0860100C0
:1015C00080841E0000093D0040420F00704700006B
:1015D00000B589B09FED1F0A00218DED010A02912F
:1015E000039104910591069107911B4988422ED1E0
:1015F00001F58A70009001AB05AA02A90C3004F035
:10160000CBFE9DED010A02A905A804F077F9134865
:10161000134AD0ED120A30EE800A80ED120A90EDE6
:10162000120AD0ED120A10EE101A9FED0E0A914226
:1016300002DD30EEC00A08E010EE901A0A4A91422C
:1016400005D9D0ED120A30EE800A80ED120A09B0F9
:1016500000BD000000000000AC0200205C00002083
:101660000000B4430000B4430000B4C32DE9FF4FB1
:1016700083B09A46DDE9119793460446DDF8408031
:10168000FFF7D8FE054694F83D00202870D11923B5
:10169000012271492046009501F07CFA0028F5D11D
:1016A00094F83C00012863D0012084F83C002068B5
:1016B0000168C90703D1016841F001010160206898
:1016C000016821F400610160222084F83D0040207F
:1016D00084F83E0000262664C4F82480A4F82A90EA
:1016E000608D20855D48E062CDE9007553465A461D
:1016F0002046049901F056F900287CD1208DD0B104
:10170000012821D00228206824D0416980690090F6
:10171000208D032869D801282BD0514902283B4647
:101720004FF00002009559D08846204601F032FA69
:10173000002860D13CE0206841698169009101681E
:1017400041F40071016077E02068016821F4806154
:101750000160F0E7016821F48061016020680168A0
:1017600041F400610160206841698069009063E094
:101770006FE02A463946204601F08BFA98BB206874
:101780000069616A08704EE02068016841F40071E8
:10179000016020680069616A0870606A401C6062CC
:1017A000218D491E2185618D491E6185216838E0A2
:1017B0002068016821F48061016020680069616A25
:1017C0000870606A401C6062208D401E2085608D1C
:1017D000401E60853B46002241460095204601F0B0
:1017E000D9F900B9D0E706E0FFE72A463946204696
:1017F00001F04FFA18B1012007B0BDE8F08F206862
:101800000069616A0870606A401C6062218D491E2F
:101810002185618D491E618521684A69D24352073D
:101820000AD409690170606A401C6062208D401E04
:101830002085608D401E6085208D00287FF468AF74
:10184000202084F83D0084F83E6084F83C6000204D
:10185000D2E70220D0E70000020010000000FFFFE6
:10186000040001002DE9FF4F83B09A46DDE910899D
:1018700093460446FFF7DEFD00250646009594F8E2
:101880003D0020287ED1574846F2A8112027006845
:10189000B0FBF1F000EBC00101EB001000900098EC
:1018A000401E009010D020688069C0438007F6D5A4
:1018B00094F83C00012865D0012084F83C002068A1
:1018C0000168C9070AD00DE044F8305F6773A5735B
:1018D000206940F02000206125736FE0016841F02D
:1018E000010101602068016821F40061016022208B
:1018F00084F83D00402084F83E002564C4F824802C
:10190000A4F82A90608D20853748E062208D4FF042
:101910002308C0B3A16B3548C863A16B3448C864C1
:10192000A06B0564A06B4564A06B8564A06B056526
:101930002168238D1031626AA06BFFF70DFC58B14E
:1019400084F83D7084F83E5054F8400F40F0100089
:1019500044F80409257031E0CDE9008653465A4623
:101960002046049901F01EF840BB208D0128206814
:1019700016D0416841F48051416020684169816915
:10198000009101E02CE010E084F83C50416841F403
:10199000807141602068416841F4006141601DE050
:1019A000016821F480610160E7E7CDE900865346D4
:1019B0005A462046049900F0F5FF18B1012007B0FF
:1019C000BDE8F08F2068416981690091016841F4A8
:1019D0000071016084F83D7084F83C500020EEE70F
:1019E0000220ECE75C0100200000FFFF6B280008EC
:1019F0002B2800082DE9FF4F83B09A46DDE91197A7
:101A000093460446DDF84080FFF714FD054694F840
:101A10003D0020287FD1192301224049204600950E
:101A200001F0B8F8002876D194F83C00012872D073
:101A3000012084F83C0020680168C90703D10168CF
:101A400041F0010101602068016821F4006101603A
:101A5000212084F83D00402084F83E0000262664C2
:101A6000C4F82480A4F82A90608D20852C48E06278
:101A7000CDE9007553465A462046049901F010F806
:101A800070B930E02A463946204601F035F958B1A0
:101A9000206C042804D12068016841F400710160C1
:101AA000012007B0BDE8F08F606A21680078086106
:101AB000606A401C6062218D491E89B22185628D59
:101AC000521E628522685369DB435B070BD469B100
:101AD00000781061606A401C6062208D401E208585
:101AE000608D401E6085208D0028CBD12A46394666
:101AF000204601F029F80028CAD154F83D0B0168AE
:101B000041F400710160202004F81E09E677667731
:101B10000020C6E7FFE70220C3E700000200100034
:101B20000000FFFF70B586B0064614216846FEF738
:101B300091FB1F493068884237D11E480025016853
:101B400041F0020101600068694600F00200059062
:101B5000C0200090122001900120029003200390E9
:101B6000042004901448FFF777FB124810300168F6
:101B700041F4001101600068114C00F40010059060
:101B80000E4820604005C4E90105C013C4E90350B4
:101B90006561A561E561256220466562FFF772FA1D
:101BA00008B1FFF789F9B463A66306B070BD000001
:101BB00000540040303802400004024010600240EF
:101BC000DC030020704770470248816802781144A6
:101BD00081607047500100200B4810B5016841F446
:101BE00000710160016841F480610160016841F4A5
:101BF00080710160032000F06FF8002000F006F80B
:101C000000F024F8002010BD003C024070B50D4DDE
:101C100004464FF47A712878B1FBF0F00A4909685C
:101C2000B1FBF0F000F002FB48B9102C07D2002203
:101C30002146501E00F030F800206C6070BD01207D
:101C400070BD0000500100205C0100200A4808B56A
:101C5000016841F480410160006800F48040009018
:101C60000548001F016841F080510160006800F0E4
:101C70008050009008BD000044380240002809DB75
:101C800000F01F02012191404009800000F1E02096
:101C9000C0F8001170470000F0B40E4B1B680C46F2
:101CA000C3F30223C3F10705042D00D90425191D30
:101CB000072901D2002300E0DB1E012606FA05F108
:101CC000491E214099409E40761E16403143F0BC8B
:101CD00002F05EB80CED00E0064900F0070208686B
:101CE0004FF6FF03184040EA0220034A1043086001
:101CF000704700000CED00E00000FA052DE9F04708
:101D00000E46050065D0DFF81481D8F80000F7B260
:101D100000F00F00B04207D288F80070D8F8000039
:101D200000F00F00B04254D128683D4C810712D515
:101D3000400703D5206840F4E05020602878000771
:101D400003D5206840F4604020602068A96820F036
:101D5000F000084320602878C0072DD0304968681B
:101D60000839012812D0022813D0032811D009689D
:101D7000890700292DDA216821F003010143216040
:101D8000FFF758FB814641F2883A0EE00968890363
:101D9000EFE709688901ECE7FFF74CFBA0EB0901CD
:101DA000514502D90320BDE8F0872068696800F03A
:101DB0000C00B0EB810FEFD1D8F80010404601F0D5
:101DC0000F01B14207D90770006800F00F00B04260
:101DD00001D00120E7E72878400705D52068E968A9
:101DE00020F4E050084320602878000706D52068DA
:101DF000296920F4604040EAC100206000F038F812
:101E00002168084AC1F30311515CC84006490860C3
:101E100006480068FFF7FAFE0020C4E7003C0240D5
:101E200008380240766500085C010020540100205B
:101E30000448054900680968044AC1F38221515CDD
:101E4000C84070475C0100200838024086650008E1
:101E50000448054900680968044AC1F34231515CED
:101E6000C84070475C0100200838024086650008C1
:101E7000154810B5006810F00C02144813D041103A
:101E8000042A0FD0082A0ED10F4C241F2268236881
:101E900002F03F025B0207D52068C0F38810A0FB68
:101EA000010106E0084610BD2168C1F38811A1FBBD
:101EB00000010023FEF784F92168C1F30141491CA8
:101EC0004900B0FBF1F010BD083802400024F400D6
:101ED0002DE9F84F040076D02078DFF838A3CE4DF6
:101EE000C00749D0DAF800105046C1F3810101293A
:101EF00008D00068C0F3810002280AD1281D0068BC
:101F0000400206D52868800336D560680028E2D0F4
:101F100032E06068B0F5803F10D0B0F5A02F28689F
:101F200010D020F480302860286820F480202860B9
:101F30006068A0B1FFF77EFA06460CE0286840F41E
:101F40008030F4E740F480202860F7E7FFF772FA6A
:101F5000801B642873D828688003F7D50CE0FFF74E
:101F600069FA064605E000BFFFF764FA801B6428A3
:101F7000F0D828688003F7D42078DFF8A0828007A3
:101F80004FF000093ED5DAF80010504611F00C0F62
:101F900009D00068C0F3810002280BD19D48001FC2
:101FA0000068400206D42868800715D5E06801283B
:101FB00009D111E0E068B8B10120C8F80000FFF7CE
:101FC00039FA064605E020E1FFF734FA801B0228C3
:101FD000C0D828688007F7D52868216920F0F80064
:101FE00040EAC10028600DE0C8F80090FFF722FA2F
:101FF000064604E0FFF71EFA801B02281FD8286857
:102000008007F7D42078000722D5824E8448616982
:102010006C3671B101210160FFF70CFA074604E04C
:10202000FFF708FAC01B022809D830688007F7D5E7
:102030000EE0C0F80090FFF7FDF9074605E082E0EA
:10204000FFF7F8F9C01B02287DD830688007F7D465
:102050002078400768D5DFF8BCB100270BF1380BBA
:10206000DBF80000C0000BD4DBF8001041F0805119
:10207000CBF80010DBF80000012700F08050009042
:10208000684E3068C00510D4306840F4807030600D
:10209000FFF7D0F9009005E0FFF7CCF90099401A5E
:1020A000022850D83068C005F6D55A4EA068683668
:1020B00001280FD00528306810D020F001003060D2
:1020C000306820F004003060A068B8B1FFF7B2F9C2
:1020D00000900FE0306840F00100F4E740F00400A9
:1020E0003060F7E7FFF7A6F90099411A41F288300E
:1020F000814266D830688007F4D50EE0FFF79AF980
:10210000009007E0FFF796F90099411A41F28830F4
:10211000814256D830688007F4D42FB1DBF8001024
:1021200021F08051CBF80010A069D0B3DAF800207C
:102130005146C2F38102022A4AD00228484607D0FB
:10214000C8F8600000E03CE0FFF774F904463BE0AB
:102150004746C8F86000FFF76DF9064605E000BF86
:10216000FFF768F9801B02282BD828688001F7D474
:10217000D4E907010843A16A2B4A490802EB01414F
:10218000626A41EA8211084394F82C1040EA016126
:102190002048001F016001203866FFF74BF9044614
:1021A00005E034E0FFF746F9001B022809D828684B
:1021B0008001F7D52BE000BFFFF73CF9001B022898
:1021C00002D90320BDE8F88F28688001F4D41EE00E
:1021D0000128F7D00868E26900F48001914214D127
:1021E000226A00F03F0191420FD147F6C071626A46
:1021F0000140914209D1A26A00F44031914204D1D8
:10220000E16A00F07060884201D00120DAE7002026
:10221000D8E700000838024000380240000047427A
:10222000800E4742007000400000FFFF10B5401EC6
:10223000B0F1807F01D3012010BD4FF0E024606138
:102240000F21601701F0A4FD0020A061072020618C
:10225000002010BD70B590F83C20012A32D0012436
:1022600080F83C40022280F83D2003685A689D684F
:1022700022F070060A6832435A60134B02689A4291
:1022800014D0B2F1804F11D0104B9A420ED0104BA7
:102290009A420BD00F4B9A4208D00F4B9A4205D06E
:1022A0000E4B9A4202D00E4B9A4204D1496825F057
:1022B00080031943916080F83D40002180F83C1074
:1022C000084670BD022070BD0000014000040040BF
:1022D00000080040000C00400004014000400140A4
:1022E0000018004010B5040003D094F83D0010B170
:1022F00007E0012010BD002084F83C00204600F0DB
:102300000DF8022084F83D00211D206801F0B4F989
:10231000012084F83D00002010BD000008B50068D1
:102320000649884208D10648016841F0020101606F
:10233000006800F00200009008BD000000040040AA
:102340004038024070B5044690F83C00012817D090
:10235000012584F83C50022084F83D002068826802
:1023600022F0770222F47F4282600868502830D041
:102370000DDC20284DD005DC98B310283BD148E077
:10238000022070BD302844D0402834D139E0602884
:1023900028D0702806D0B0F5805F2CD0B0F5005F53
:1023A00029D10AE0CB68D1E90121206801F0D5F9F3
:1023B0002068816841F0770109E0CB68D1E901210B
:1023C000206801F0CAF92068816841F48041816089
:1023D00011E0CA684968206801F094FA5021206829
:1023E00007E016E0CA684968206801F09CFA60219D
:1023F000206801F0BCF984F83D50002084F83C00CE
:1024000070BDCA684968206801F07CFA40212068E4
:10241000EFE7226801461046EBE7000070B586B092
:10242000044614216846FDF715FF154920688842C7
:1024300023D114480025016841F0010101600168C1
:1024400001F001010591016841F00201016000689D
:10245000022400F002000590802003268DE8710020
:10246000694609480494FEF7F7FE01208DE87100E3
:10247000694606480494FEF7EFFE06B070BD000002
:1024800000040040303802400000024000040240D6
:1024900070B5044690F83C000D4601280DD0012689
:1024A00084F83C60022084F83D0042B1042A18D030
:1024B000082A2AD00C2A4DD139E0022070BD2068AC
:1024C00001F05EF92068816941F0080181612068AE
:1024D000816921F004018161206881692A691143C1
:1024E00011E0206801F07CF92068816941F4006105
:1024F00081612068816921F480618161206881693E
:102500002A6941EA0221816124E0206801F09EF9F4
:102510002068C16941F00801C1612068C16921F0EA
:102520000401C1612068C1692A69114311E0206872
:1025300001F0C0F92068C16941F40061C1612068FF
:10254000C16921F48061C1612068C1692A6941EAD9
:102550000221C16184F83D60002084F83C0070BD18
:1025600010B5040003D094F83D0010B107E001203D
:1025700010BD002084F83C00204600F00CF802203A
:1025800084F83D00211D206801F076F8012084F8D0
:102590003D00002010BD704710B5044600680122C0
:1025A00001F0CEF80B492068884202D00A498842DF
:1025B00003D1416C41F4004141642068816801F01D
:1025C0000701062903D0016841F0010101600020E4
:1025D00010BD0000000001400004014070470000F1
:1025E00070B5026804461068D168536910F00F0F87
:1025F00052D003F0010501F490762E435FD0C2075C
:1026000005D0CA0503D5E26B42F00102E26342073E
:1026100005D5DA0703D0E26B42F00202E2638207DB
:1026200005D5DA0703D0E26B42F00402E263020749
:1026300007D501F020022A4303D0E26B42F00802E2
:10264000E263E26B002A33D0800604D5880602D507
:10265000204601F090F920684069E16BC0F38010DA
:10266000090700D428B3204601F077F920684169B2
:1026700049061AD5416921F040014161606BA0B162
:102680001B490165606BFEF718FC002810D0606BD9
:10269000016DBDE870400847830610D58B060ED546
:1026A0002046BDE8704001F066B92046FFF796FF6E
:1026B00070BD2046FFF792FF0020E06370BD030667
:1026C00006D50B0604D52046BDE8704001F032BAAD
:1026D0004006F3D54806F1D5D168204621F04001E7
:1026E000D160202184F8391000F09DF870BD000001
:1026F0004B39000870B5040004D094F83900002567
:1027000010B106E0012070BD84F83850204600F07A
:1027100023F8242084F839002068C16821F400518E
:10272000C160204601F072F92068016921F49041EE
:1027300001612068416921F02A0141612068C16876
:1027400041F40051C160E563202084F8390084F829
:102750003A00002070BD0000F0B587B00446142197
:102760006846FDF777FD2B48294F26680022294946
:102770001038022303240725BE4220D10E6846F4F8
:1027800000360E60096801F400310591016841F0DE
:1027900001010160006802AE00F0010005900C200C
:1027A000CDE9000386E8340069461B48FEF754FD76
:1027B000002207212620FFF76FFA262023E0174F7B
:1027C000BE4222D10E6846F480260E60096801F4EC
:1027D00080210591016841F002010160006802AEAC
:1027E00000F0020005904FF44060CDE9000386E858
:1027F000340069460A48FEF72FFD002205212720F4
:10280000FFF74AFA2720FFF739FA07B0F0BD0000BA
:1028100000440040403802400000024000480040B0
:102820000004024070477047FEE770B5846B0025D6
:10283000616B01B1CD63A16B01B1CD63FEF74FFBBD
:10284000022811D02068016821F48061016065854B
:10285000202084F83D0084F83E50206C40F01000A9
:1028600020642046FEF7ECFD70BD2DE9F041846B3D
:1028700094F83D2094F83E50E16A2068436823F4C0
:1028800040734360636B002003B1D863A36B03B153
:10289000D863212333EA02074FF022060CD036EA30
:1028A000020701D1202D07D094F83E20002A21D024
:1028B000628D012A20D024E021684D6825F400654E
:1028C0004D6060852820292A02D02A2A07D00CE0F2
:1028D000236384F83D002046FFF775F905E0266381
:1028E00084F83D002046FFF76DF92068416841F407
:1028F00040714160BDE8F0812268136823F4806371
:1029000013602268536823F44073536011F5803FCD
:1029100006D0082904D0B1F12A4F01D0202904D1D2
:1029200021680A6842F400720A6021684A6822F449
:1029300080524A6021684A6822F400624A606085D9
:10294000216C19B12046FEF77BFDD3E7202184F8E6
:102950003D1094F83E1084F83E00402905D0122026
:1029600020632046FEF732FEC4E720632046FEF7D0
:102970002FFEBFE701684A69D24352050FD46FF4B6
:1029800080624A61002140F8301F20224273817327
:10299000026942F0040202610173012070470020C5
:1029A000704700002DE9F84F0446006889460B9DEA
:1029B00001689846174641F480610160206801680B
:1029C00041F48071016000954FF0011B00225946CF
:1029D00020460A9B00F0DEF84FF4007A40B12068F0
:1029E0000068C00501D5C4F840A00320BDE8F88FF9
:1029F000216809F0FE0008612B46284920460A9A02
:102A000000F0FCF8F0BB20684169806900902A461C
:102A100020460A9900F070F940B1206C04283AD1A0
:102A20002068016841F40071016034E0FEB2B8F141
:102A3000010F09D02168380A08612A4620460A9900
:102A400000F05AF90028E8D1206806612A4620469D
:102A50000A9900F051F90028DFD12068016841F49B
:102A60008071016000950022594620460A9B00F0C3
:102A700091F80028B3D1216809F0FF0040F001006F
:102A8000086100E007E02B46044920460A9A00F05E
:102A9000B5F80028AAD00120A8E700000200010034
:102AA0002DE9F843044600680D46DDE90897016802
:102AB0009846164641F4807101604B4600224FF063
:102AC00001112046009700F065F848B120680068C1
:102AD000C00502D54FF4007020640320BDE8F883E0
:102AE000216805F0FE0008613B464A46154920462C
:102AF00000F084F888B920684169806900903A46FE
:102B00004946204600F0F8F848B1206C042804D16A
:102B10002068016841F4007101600120DEE7F5B230
:102B2000B8F1010F09D02168300A08613A464946D8
:102B3000204600F0E1F80028E7D120680561002078
:102B4000CCE700000200010070B516460D460446B1
:102B50000DE02046FFF70EFF08B1012070BD681C94
:102B600005D0FEF767FC801BA84207D835B1206866
:102B70004069C0434007ECD4002070BD002044F8F9
:102B8000300F20216173A073216941F02001216180
:102B90002073E2E72DE9F0471E4690460D460446B5
:102BA000C1F30747DDF8209008E0701C06D0FEF75F
:102BB00041FCA0EB0900B0420FD876B12068012F8C
:102BC00018D0806925EA00000004000C14D0002110
:102BD0004145EAD00020BDE8F087002044F8300FDE
:102BE00020216173A073216941F0200121612073CC
:102BF0000120F0E74069E5E70121E9E72DE9F04729
:102C00009A4691460E46044600254FF02008C1F32F
:102C1000074725E020684069C043400514D4206878
:102C2000016841F40071016021686FF480604861BF
:102C3000256384F83D8084F83E50206C40F0040009
:102C4000206484F83C501FE0B9F1FF3F08D0FEF744
:102C5000F1FBA0EB0A0149450CD8B9F1000F09D0EE
:102C60002068012F13D0806926EA00000004000CC0
:102C70000BD0CFE744F8305F84F80D80A57320694E
:102C800040F02000206125730120BDE8F0874069F5
:102C9000EAE72DE9F041002590460E46044620273C
:102CA00017E04069C043C0060CD454F8301B6FF0E5
:102CB0001000486144F810596777A577206A2062B0
:102CC000257717E0FEF7B6FBA0EB0800B04208D866
:102CD0003EB120684169C9434906E2D40020BDE8FD
:102CE000F08144F8305F6773A573206940F02000DD
:102CF000206125730120F2E770B516460D460446A3
:102D00000DE02046FFF736FE08B1012070BD681CBB
:102D100005D0FEF78FFB801BA84207D835B120688D
:102D20004069C0430006ECD4002070BD002044F888
:102D3000300F20216173A073216941F020012161CE
:102D40002073E2E72DE9F04385B0074600208DF8B7
:102D50000C00012403AE4FF0D009642500962346F1
:102D60006B2249466848CDE90145FEF743FE6420E1
:102D7000FEF72AFA38788DF80C00009601236B22B2
:102D800049466148CDE90145FEF734FEC820FEF70B
:102D90001BFA78788DF80C00009601231A22494618
:102DA0005948CDE90145FEF725FE04208DF80C00B9
:102DB00000960123192249465348CDE90145FEF703
:102DC00019FE0DF1100840468DE8310001231B2249
:102DD00049464D48FEF74AFC9DF81000397920F02D
:102DE0001B0040EAC1008DF810008DF80C00009621
:102DF00001231B2249464448CDE90145FEF7FAFD6F
:102E0000CDF8008001231C2249463F48CDE9014509
:102E1000FEF72CFC9DF81000F97820F0180040EA2D
:102E2000C1008DF810008DF80C00009601231C22C3
:102E300049463548CDE90145FEF7DCFDCDF8008077
:102E400001231D2249463048CDE90145FEF70EFC1D
:102E50009DF81000012320F00F01B8780096084378
:102E60008DF810008DF80C001D2249462648CDE94A
:102E70000145FEF7BFFD22208DF80C0000960123CE
:102E8000372249462048CDE90145FEF7B3FD8DF8CC
:102E90000C4000960123382249461B48CDE90145E4
:102EA000FEF7A8FD6420FEF78FF9F978174831B1D5
:102EB000012907D0022918D0032907D118E09FED76
:102EC000140A01E09FED130A80ED040A397991B1EB
:102ED000012913D0022914D0032903D19FED0E0A32
:102EE00080ED050A05B0BDE8F0839FED0C0AEBE725
:102EF0009FED0B0AE8E79FED0B0AF1E79FED0A0A49
:102F0000EEE79FED0A0AEBE78C0100203800002075
:102F1000000080380000003900007A3D0000803950
:102F20000000003A0000FA3B00007A3C0000FA3C46
:102F3000014654220148FDF774B900008C010020BD
:102F40002DE9F04786B014216846FDF783F9404823
:102F50000024016841F010010160016801F01001D6
:102F60000591016841F080010160016801F0800174
:102F70000591016841F001010160016801F0010162
:102F80000591016841F002010160016801F0020150
:102F90000591016841F0080101600068DFF8B48024
:102FA00000F008000590002230214046FEF73CFA70
:102FB000DFF8A4904FF4C066002231464846FEF781
:102FC00033FADFF898A04FF4704700223946504694
:102FD000FEF72AFA142000902148CDE90104694641
:102FE0004846FEF739F92820CDE9000469464846ED
:102FF0000294FEF731F9302000900125CDE901540B
:10300000694640460394FEF727F90096CDE901543E
:10301000694648460394FEF71FF90097CDE901542D
:10302000694650460394FEF717F90022114608201E
:10303000FEF732FE0820FEF721FE002211460A208C
:10304000FEF72AFE0A20FEF719FE06B0BDE8F0875B
:10305000303802400000024000100240000C0240E4
:103060000000111010B58EB0002407940894099444
:103070000A940B941C2168460C94FDF7EBF81A484F
:10308000184901600121C0E9011440F28F61C0E9D3
:1030900003148461FFF726F94FF48050079007A9C5
:1030A0001148FFF74FF91048FFF75AFA0B940BA994
:1030B0000D480C94FFF7CEF8602000904FF4966016
:1030C000CDE901040422694607480494FFF7E0F9BA
:1030D000082269460448FFF7DBF90348FFF79EF929
:1030E0000EB010BD0004004000030020FEE7704752
:1030F000704700000F480E490160483141600E489A
:1031000001680868426942F0010242610B480068A8
:103110000268536943F0010353610968CA6842F0C9
:103120002002CA600068C16841F02001C160704798
:103130001C0200205400002064000020C800002071
:10314000704700002DE9F05F404B414C414D4FF47A
:1031500000564FF4007A4FF4806B422835D0B70008
:10316000462843D04FF480484C284BD0991452281D
:103170005ED0532867D1002299461846FEF754F9CD
:10318000002231464846FEF74FF9002241464846A4
:10319000FEF74AF9002239464846FEF745F9002273
:1031A00010212046FEF740F9002220212046FEF79C
:1031B0003BF9002251462846FEF736F900225946CF
:1031C0002846BDE8F05FFEF72FB9012231461846C8
:1031D000FEF72AF9012210212046FEF725F90022E8
:1031E00020212046FEF720F90122E3E7012239469B
:1031F0001846FEF719F9002210212046FEF714F9AF
:1032000001220AE0012241461846FEF70DF900228C
:1032100010212046FEF708F9002220212046FEF763
:1032200003F9002251462846FEF7FEF80122C6E7C0
:1032300001221846FEF7F8F8002210212046FEF77A
:10324000F3F80122B1E7BDE8F09F0000000C024056
:103250000000024000100240F0B595B00C46074651
:10326000FDF703F803461A481AA12246098801808F
:1032700019A1684600F060FD1C4D6846296800F001
:103280001FFDFEF7D7F80646194C04E0FEF7D2F80A
:10329000801B0A2802D820780028F7D00026267044
:1032A00014A10B48FCF7E8FF3846296800F008FD38
:1032B000FEF7C0F8054604E0FEF7BCF8401B3228D4
:1032C00002D820780028F7D0267015B0F0BD000095
:1032D000640100203E00000041542B4349505345F7
:1032E0004E443D25642C25640D0A00006400002036
:1032F00000000020302C434C4F5345440D0A000081
:103300002DE9FF4104462948FCF7AFFF28A1C6B2CA
:10331000D1E90001CDE9000127A1D1E90001CDE902
:1033200002016846FCF7A1FFC5B202A8FCF79DFFA9
:103330002349C2B21D488B79C75C0020A74208D13F
:103340005B1CDBB28B71B34204D1887101230B701B
:1033500000E08871CB6823BBCB791DF80360A642DF
:1033600009D15B1CDBB2CB71AB4205D1C8714B7A82
:103370005B1C4B7200E0C8714B7A93B10A2B04D3EB
:103380004872012004B0BDE8F0810B7A02ADED5C1B
:10339000A54207D15B1CDBB20B72934203D10872CA
:1033A000487200E008720020ECE700006401002091
:1033B000627573792070000053454E44204F4B00D6
:1033C0000000002000B5303895B0C2B205A16846B3
:1033D00000F0B2FC08480168684600F071FC15B0C6
:1033E00000BD000041542B434950434C4F53453DD1
:1033F00025640D0A00000000640000202DE9FC4156
:103400000E461AA10746D1E90001CDE90001154693
:1034100000246846FCF729FFC3B21648C16801B909
:103420002C46827800210AB13C70817045790122D6
:103430001DF80570A74208D16D1CEDB245719D4283
:1034400004D18270C270417102E04171C37853B1FE
:1034500003792BB10171C17034700120BDE8FC818A
:103460003D2C00D102710020F8E700002B495044A8
:103470002C000000000000202DE9F047894682461C
:10348000AAB01F46904622A12348FCF7F5FE23A1CF
:1034900002A800F051FC254D02A8296800F010FC9C
:1034A000FDF7C8FF0646224C05E000BFFDF7C2FF4E
:1034B000801B0A2802D820780028F7D00026267022
:1034C0001CA11548FCF7D8FE29A102A800F034FC85
:1034D00002A8296800F0F4FBFDF7ACFF054604E004
:1034E000FDF7A8FF401B322802D820780028F7D02B
:1034F0002670CDE900874B46524628A116A800F059
:103500001BFC002116A8FFF7A7FE2AB0BDE8F08734
:103510004F4B0D0A000000006401002041542B4372
:103520004950434C4F53453D350D0A00640000207F
:103530000000002041542B43495053544152543D04
:10354000302C22544350222C223139322E3136383D
:103550002E33352E323432222C38300D0A302C43A3
:103560004F4E4E4543540D0A0D0A4F4B00000000CC
:1035700041542B43495053544152543D302C225412
:103580004350222C223139322E3136382E33352E0B
:10359000323432222C38300D0A00000047455420C6
:1035A0002F696E736572745F64617461322E706826
:1035B000703F6E756D313D2564266E756D323D250B
:1035C00064266E756D333D2564266E756D343D251C
:1035D000640D0A00FEF7F8BA30B593B030216846A2
:1035E000FCF738FE14210CA8FCF734FE194800251E
:1035F000016841F080510160006800F08050119036
:103600001548016841F4804101600068022400F41B
:103610008040119001200090000401908001CDE9CC
:10362000064008AA0420A82182E813000B906846EF
:10363000FEF74EFC0CA90F2081E831004FF4A0509A
:103640000F90E002109005210CA8FEF757FB13B075
:1036500030BD00004038024000700040054801685D
:1036600041F47001016003494FF000608039086047
:103670007047000088ED00E0F0B50268254C264D4B
:10368000264E274F274B4FF0804CA04209D0604573
:1036900007D0A84205D0B04203D0B84201D098422A
:1036A00004D122F0700E4A6842EA0E02A0421BD0FA
:1036B000604519D0A84217D0B04215D0B84213D0F7
:1036C000984211D0184DA8420ED0184DA8420BD0E8
:1036D000174DA84208D0174DA84205D0164DA84254
:1036E00002D0164DA84203D122F44075CA682A437D
:1036F0004D6922F080022A4302608A68C2620A6829
:103700008262A04201D0984201D10969016301217E
:103710004161F0BD0000014000040040000800408D
:10372000000C004000040140004001400044014002
:103730000048014000180040001C004000200040EC
:1037400010B501F01F030121046A99408C43046203
:10375000016A9A401143016210BD10B5846842EAC3
:10376000032224F47F440A432243826010BD82680E
:1037700022F070020A4342F00701816070470000A6
:10378000F0B5026A22F001020262036A42688469AB
:10379000124E24F073050C682C4323F002058B684D
:1037A0002B430D4DA84201D0B04205D123F00807AC
:1037B000CB683B4323F00403A84201D0B04205D1BB
:1037C0004D6922F4407215438A692A43426084613C
:1037D000496841630362F0BD0000014000040140FC
:1037E000F0B5026A22F010020262026A436884693C
:1037F0000D6824F4E64444EA05248D6822F0200292
:1038000042EA05120F4D104EA84201D0B04206D137
:10381000CF6822F0800242EA071222F04002A8425A
:1038200001D0B04207D14D6923F4406343EA8503D8
:103830008D6943EA8503436084614968816302625C
:10384000F0BD00000000014000040140F0B5026A34
:1038500022F480720262026A4368C46922F4007230
:1038600024F073050C68124E2C438D6842EA052241
:103870000E4DA84201D0B04206D1CF6822F40062BA
:1038800042EA072222F48062A84201D0B04207D166
:103890004D6923F4405343EA05138D6943EA051348
:1038A0004360C4614968C1630262F0BD0000014029
:1038B0000004014030B5026A22F480520262046AB8
:1038C0004268C3690D6823F4E64343EA05238D6823
:1038D00024F4005444EA0534084DA84202D0084DAF
:1038E000A84204D14D6922F4804242EA8512426026
:1038F000C36149680164046230BD000000000140FA
:103900000004014010B5036A046A24F00104046253
:10391000846924F0F00444EA021423F00A020A4302
:103920008461026210BD10B5036A23F010030362C4
:103930008369046A23F4704343EA023224F0A0034B
:1039400043EA01118261016210BD10B5806B002154
:10395000C185C184FEF742FE10BD0168CA6822F429
:103960009072CA6001684A6922F001024A6120210E
:1039700080F83A10704710B590F83A10222901D01B
:10398000022010BD8168B1F5805F11D00169002966
:1039900001681FD0496801F07F03816A4A1C826276
:1039A0000B70C18D491E0904090CC18518D02BE08C
:1039B0000269816A002A0268526805D0D2B20A8080
:1039C000816A491C8162ECE7C2F308020A80816ABD
:1039D000891CF7E74A68816A4B1C83620A70E0E73A
:1039E0000168CA6822F02002CA600168CA6822F42D
:1039F0008072CA6001684A6922F001024A6120218E
:103A000080F83A10FEF70EFF002010BD2DE9F041BE
:103A1000044600680169E26821F4405111430161E4
:103A20002169A068E269084361691143084321687C
:103A3000CA6849F20C639A430243CA60206841692C
:103A4000A26921F4407111434161E069192764259D
:103A50003226B0F5004F354A354920684FF000084E
:103A600006D0884201D0904236D1FEF7F1F935E018
:103A7000884201D0904202D1FEF7EAF901E0FEF758
:103A8000D7F961684A18A0FB070148EB0803FCF767
:103A900097FB0146B0FBF5F00201B1FBF5F06FF0CA
:103AA0001803584301EB800006EBC000B0FBF5F0B3
:103AB00000F0F80002EB4002B1FBF5F0584301EBD7
:103AC000800006EBC000B0FBF5F000F007002168B5
:103AD00010448860BDE8F081FEF7AAF961688B0F99
:103AE0008A00A0FB0701FCF76BFB0146B0FBF5F079
:103AF0006FF01802504301EB800006EB0010B0FBA2
:103B0000F5F000F0F002B1FBF5F002EB0012B1FBB2
:103B1000F5F06FF01803584301EB800006EB00103E
:103B2000B0FBF5F000F00F00D1E7000000140140F9
:103B30000010014090F83910212901D0022070476F
:103B40008168B1F5805F016A0BD04A1C026202688D
:103B500009785160C18C491E0904090CC1840ED03A
:103B600017E009880268C1F3080151600169002962
:103B7000016A02D0491C0162ECE7891CFBE701687D
:103B8000CA6822F08002CA600068C16841F0400142
:103B9000C16000207047000010B5044800F014F820
:103BA000BDE810400148FEF71BBD000040030020A7
:103BB00010B5044800F008F8BDE810400148FEF7D1
:103BC0000FBD00008003002030B401680B68CA6894
:103BD0009C0607D5940605D50A68496830BCC9B269
:103BE00000F02CB81B060BD5120609D5104A126836
:103BF000904212D10F4A16E0C86820F08000C860D9
:103C000030BC7047516C536C515C5B1C03F03F033C
:103C10005364006802684160F2E7074A1268904204
:103C2000EED1044A4832136C546CA342EAD1E3E764
:103C3000640000201C020020C800002070B50D4662
:103C40000846FFF75DFB1D4C012807D0611C2A4682
:103C5000481EFFF7D3FB012808D00DE0A0680068DC
:103C6000C16821F02001C160072011E06078FFF7F2
:103C700069FA2078FFF7A6FB6278002003214C2A1E
:103C800012D007DC422A0CD0462A15D160700120E0
:103C9000A07010E0522A0BD0532A0DD1607006207C
:103CA000F6E760700220F3E76070A170042002E084
:103CB0006070A1700520E07070BD00005C00002005
:103CC00030B50D46044603E02946641C00F004F8B4
:103CD00020780028F8D130BD10B5002816DB124B33
:103CE000C2B212481C68A14211D10068016C491C83
:103CF00001F03F01446C8C42FCD0046C025501641D
:103D000018680068C16841F08001C16010BD084BAF
:103D10001C68A142FAD14068016C491C01F03F01C6
:103D2000446C8C42FCD0E8E7640000205400002082
:103D3000C8000020FEE700000FB4084B10B504A92E
:103D400002AA039801F0BEFB044602A9002001F07C
:103D500095FC204610BC5DF814FB00007D56000861
:103D600003B401984100009850EAC12018BF042014
:103D70004A0D18BF40F0010040F2FF72B2EB515FF4
:103D800008BF40F00200012808BF052002B07047BC
:103D90000907090E002804DB00F1E02080F8001478
:103DA000704700F00F0000F1E02080F8141D70470C
:103DB00010B52F499FED2C1B2DED020B84B00598FB
:103DC00020F000408842D8BF9DED040B2DDD29492D
:103DD000884209D1049840B94FF0010001F06CFB12
:103DE00001F02AFB06B010BD05DB9DED040B01F0D0
:103DF0000FFB06B010BD68469DED040B00F008FFF8
:103E000010F0030004BF9DED021B9DED000B0CD0D4
:103E100001280ED09DED021B9DED000B022817D04E
:103E2000012001F045FA06B010BD01F00DF906B011
:103E300010BD9DED021B9DED000B012001F038FA35
:103E400051EC100B81F0004106B041EC100B10BD9D
:103E500001F0FAF851EC100B81F0004106B041EC92
:103E6000100B10BD0000000000000000000000006A
:103E7000FB21E93F0000F07F2DE9F04D2DED040B13
:103E80002DED0E8B96B0DDE92550279CDDF890A036
:103E900025F0004624F00048BAF1000F14BF0121BC
:103EA000002101EB4502FC4953184A1093422AD3E2
:103EB000002814BF0123002303EB44030B44F749FC
:103EC0008B4220D358EA00019FEDF59B76D0DFF8B6
:103ED000D8B35D4503D1BAF1000F05D188E0BAF13E
:103EE000000F08BF002100D0012101EB450111F5B1
:103EF000001F08D8002814BF0121002101EB440154
:103F000011F5001F0BD99DED261B9DED240B16B05E
:103F1000BDEC0E8B04B0BDE8F04D01F083BA002774
:103F2000002DBCBFE149884521DAE1498845A8BF99
:103F300002271CDAC3451ADCDE4901EB285114299B
:103F400008DDC1F1340220FA02F101FA02F28242E4
:103F50000DD108E058B9C1F1140228FA02F101FAB2
:103F600002F2424503D101F00101C1F1020756EA14
:103F70000A0124D1002C22DA002D18BF022F01D013
:103F8000012F0AD0022001F097FA16B0BDEC0E8B7B
:103F900004B0BDE8F04D01F023BA022001F08CFA24
:103FA00001F01EFA51EC100B81F0004141EC100BB6
:103FB00016B0BDEC0E8B04B0BDE8F08D18E09FED9F
:103FC000BEAB9FEDBF8B002871D1B848804522D190
:103FD00005F1804010F5801008BFBAF1000F07D03E
:103FE000B3450ADC002CA8BF9DED260BE0DA0DE0FE
:103FF000B0EE490AF0EE690ADAE7002C06DA9DED28
:10400000260B51EC100B81F000416FE0AE48784474
:1040100090ED000BCCE7D8454DD1002C48DA2EB1FD
:1040200086423AD1BAF1000F42D126E0BAF1000F30
:1040300013D0022001F040FA01F00EFA8DED020BD0
:104040009DED240B8DED000B10EE900A039961F3AA
:104050001E0003909DED020BAAE78DED02AB9DEDD6
:10406000240B1AEE901A10EE900A8DED000B61F3FE
:104070001E0003909DED020B9AE78DED028B9DEDE6
:10408000240B18EE901A10EE900A8DED000B61F3E0
:104090001E0003909DED020B8AE709DA9DED240BCB
:1040A00051EC190B53EC102BFCF708FA1EE020E042
:1040B0009DED240B7CE786421BDAB4F1804F0DD0D6
:1040C000A4F10050B0F1FF5013D1002D11DB9DED94
:1040D000240B51EC100B02F013FA07E09DED240BBA
:1040E00053EC102B51EC100B00F0C2BC41EC100B48
:1040F0005EE79DED240B51EC100B01F07FFBBAF154
:10410000000FCDE90E0142D19FED710B46B3A6F130
:10411000E040B0F17F600CD05E4538D1002D00DA70
:10412000A7B3022F0CBF01204FF0FF30FCF7B4FB08
:10413000DCE7002D01DD002C0DDA002D01DD002C67
:104140001FDB002D16DA002C14DB012F08BF9FEDBA
:10415000620B3FF42DAFB0EE4A0AF0EE6A0A27E791
:10416000022F18BF002D0CD0012F0AD1002DFFF611
:104170001FAF06E0002DB8BF002C08DA012F3FF476
:1041800017AFB0EE480AF0EE680A11E71BE0012015
:1041900000EBE57050EA070115D0791EB0EE498AB0
:1041A000F0EE698A084308BF9FED4D8B4E4800250D
:1041B000804570DD4D494E48884514DDB0420DDB29
:1041C000002C19DB2FE0012001F076F916B0BDECD0
:1041D0000E8B04B0BDE8F04D01F02EB9B34502DC02
:1041E000002C09DC1FE0864202DA002C1BDA03E017
:1041F0005E452BDD002C16DD022001F05DF901F09B
:104200002BF98DED020B53EC1A2B51EC180BFCF72C
:10421000E3F8CDE900010399019861F31E000390D2
:104220009DED020BC4E6022001F046F901F024F9ED
:1042300010EE901A18EE900A8DED020B8DED008BAA
:1042400061F31E0003909DED020BB1E69DED0E0B98
:1042500053EC192B51EC100BFCF7B8F89FED260B23
:10426000CDE9080153EC102B9DED080B51EC100B20
:10427000FCF7B2F89FED221B53EC112BFCF7A9F8C9
:104280009DED081B53EC112BFCF7A6F89FED1E1BB0
:1042900053EC112B3CE08CE0FFFF1F00FFFF0F00F1
:1042A000000000000000F03F0000F03F0000F07F41
:1042B0000000404301FCFFFF000000000000F07F11
:1042C0000000000000000000362600000000000092
:1042D0000000000000000080000000000000F0FF6F
:1042E000000000000000F0BF0000E0410000F043CB
:1042F000FFFFEF3F00000000000000000000D03F83
:10430000555555555555D53F000000000000E03F7C
:10431000FCF75FF89DED080B41EC1A0B53EC102BEA
:1043200051EC100BFCF758F853EC1A2BFCF754F82F
:1043300041EC1A0B9FEDFE0B53EC102B9DED080B7F
:1043400051EC100BFCF748F841EC1B0B9FEDFA0BFE
:1043500051EC1A0B53EC102BFCF73EF841EC1A0B06
:104360009FEDF70B53EC102B9DED080B51EC100B50
:10437000FCF732F853EC1A2BFCF728F841EC1A0B37
:1043800051EC1B0B53EC1A2BFBF77FFF0690CDE98A
:1043900006519DED060B53EC1B2B51EC100BFCF75B
:1043A00015F853EC1A2BFCF714F841EC100B00F045
:1043B000A1B90020B6F5801F0EDA9FEDE30B53EC98
:1043C000102B9DED0E0B51EC100BFCF705F8CDE911
:1043D0000E016FF034000E4600EB2650A0F2FF37BE
:1043E000C6F31300DA4940F07F6646F04056884233
:1043F000D8BF002408DDD7498142C8BF012403DCAF
:104400000024A6F580167F1CD348784400EBC40036
:104410000F9690ED00CB9DED0E0B53EC1C2B51EC49
:10442000100BFBF7D3FF9DED0E0B41EC1B0B53EC78
:104430001C2B51EC100BFBF728FF41EC100B51EC3F
:10444000190B53EC102BFCF739F841EC1D0B51EC18
:104450001B0B53EC1D2BFBF7BFFF41EC1A0BBF48A6
:104460008DED10AB7844109590ED000B4FF000509F
:1044700040EA660000EB84408DED080B00F500205B
:1044800009909DED080B53EC1C2B51EC100BFBF726
:104490009DFF9DED0E1B53EC112BFBF79AFF41EC9A
:1044A000100B53EC102B9DED100B51EC100BFBF788
:1044B00093FF9DED080B41EC1C0B53EC102B9DED75
:1044C000100B51EC100BFBF787FF53EC1B2BFBF78A
:1044D00080FF53EC1C2BFBF779FF53EC1D2BFBF7F4
:1044E0007BFF41EC1C0B53EC1A2B51EC1A0BFBF726
:1044F00073FF41EC1B0B9A480621B0EE4B0AF0EE1D
:104500006B0A784400F058FEB0EE401AF0EE601AE4
:10451000B0EE41DAF0EE61DA53EC1B2B51EC1B0BE1
:10452000FBF75AFF53EC1D2BFBF756FF9DED100BCD
:1045300041EC1B0B53EC1A2B51EC100BFBF7A5FEB7
:1045400053EC1C2BFBF748FF53EC1B2BFBF79DFE9A
:104550009DED100B41EC1B0B53EC102B51EC100B91
:10456000FBF73AFF41EC1D0B9FED7FEB53EC1E2B4D
:10457000FBF78BFE53EC1B2BFBF787FE0890CDE976
:1045800008519DED080B53EC1E2B51EC100BFBF763
:104590001DFF53EC1D2BFBF719FF53EC1B2BFBF7F7
:1045A00018FF9DED080B41EC1D0B53EC102B9DEDFE
:1045B000100B51EC100BFBF70FFF41EC1B0B53ECF6
:1045C0001A2B51EC1D0BFBF707FF9DED080B41EC7F
:1045D0001A0B53EC102B51EC1C0BFBF7FDFE53ECAC
:1045E0001A2BFBF752FE41EC1A0B51EC1B0B53EC50
:1045F0001A2BFBF74AFE0C90CDE90C519DED0C0BEC
:1046000053EC1B2B51EC100BFBF7E0FE53EC1A2B79
:10461000FBF7DFFE41EC1B0B9FED550B53EC102B12
:104620009DED0C0B51EC100BFBF7D6FE41EC1A0B79
:104630009FED510B51EC1B0B53EC102BFBF7CCFEF9
:1046400041EC1B0B9FED4E0B53EC102B9DED0C0B17
:1046500051EC100BFBF7C0FE53EC1B2BFBF715FEC8
:1046600041EC100B4848784400EBC40090ED001B6F
:1046700051EC100B53EC112BFBF707FE41EC1B0B1D
:104680003846FCF709F9CDE9080153EC1B2B51EC36
:104690001A0BFBF7FAFD41EC100B3C48784400EB99
:1046A000C40090ED00CB51EC100B53EC1C2BFBF72E
:1046B000ECFD9DED081B53EC112BFBF7E6FD06907E
:1046C000CDE906519DED080B53EC102B9DED060B2B
:1046D00051EC100BFBF77AFE53EC1C2BFBF776FE2C
:1046E00053EC1A2BFBF772FE53EC1B2BFBF771FEFE
:1046F00041EC100B9DED261B53EC102B8DED001B98
:1047000000959DED260B51EC100BFBF765FE9DED22
:10471000000B41EC1A0B53EC102B9DED260B51ECCA
:10472000100BFBF753FE9DED061B53EC112B2FE0F6
:10473000000000604715F73FFE822B654715F73FE5
:1047400044DF5DF80BAE543E000000000000404323
:104750008E9803007AB60B0082210000E021000051
:10476000BA20000000000000000000000000084027
:10477000000000E009C7EE3FFD033ADC09C7EE3F49
:10478000F5015B14E02F3EBE461F0000001F000035
:10479000FBF722FE53EC1A2BFBF777FD9DED060B82
:1047A00041EC1A0B53EC102B9DED000B51EC100B50
:1047B000FBF712FECDE90C019DED0C0B51EC1A0B31
:1047C00053EC102BFBF761FDCDE902010C46AA4921
:1047D0008C422FDB611A084318D19DED0C0B53EC72
:1047E000102B9DED020B51EC100BFBF7EFFD41EC94
:1047F0001B0B9FEDA30B51EC1A0B53EC102BFBF78B
:1048000044FD53EC1B2BFCF759F82DD2022000F08D
:1048100053FE00F021FE10EE901A18EE900A8DED76
:10482000020B8DED008B61F31E0003909DED020BDA
:10483000FFF7BEBB944A24F00041914214D3934940
:10484000214408437FF4EFAC9DED0C0B53EC102B8F
:104850009DED020B51EC100BFBF7B8FD53EC1A2B3E
:10486000FCF72CF87FF6DFAC24F000408849894A39
:10487000002601EB205182422BDA481C4FF48011B4
:1048800021FA00F02044844AC0F30A517A44A1F28C
:10489000FF3192ED000B814A8DED080BCA4020EAF2
:1048A0000202C0F3130040F48010C1F1140120FA99
:1048B00001F60992002CB8BF76429DED080B53EC2F
:1048C000102B9DED0C0B51EC100BFBF77FFDCDE990
:1048D0000C019DED0C0B51EC1A0B53EC102BFBF75C
:1048E000D4FC9FED6F0B0890CDE9085153EC102BD1
:1048F0009DED080B51EC100BFBF76EFD41EC1B0B13
:104900009FED690B53EC102B9DED080B51EC100B38
:10491000FBF762FD9DED0C0B41EC1C0B53EC102BD7
:104920009DED080B51EC100BFBF750FD53EC1A2BCF
:10493000FBF74FFD9FED5E1B53EC112BFBF74CFD7E
:1049400053EC1C2BFBF7A1FC41EC1A0B51EC1B0B9D
:1049500053EC1A2BFBF799FCCDE902019DED020BFC
:1049600053EC1B2B51EC100BFBF730FD53EC1A2BC7
:10497000FBF72FFD9DED020B41EC1A0B53EC102BB6
:1049800051EC100BFBF728FDCDE908014A489DEDDD
:10499000080B0521784400F00FFC9DED081B51EC3D
:1049A000100B53EC112BFBF717FD9DED021B53EC85
:1049B000112BFBF70EFDCDE906019DED020B53EC2B
:1049C0001A2B51EC100BFBF707FD53EC1A2BFBF7DE
:1049D0005CFC9FED3B0B41EC1A0B53EC102B9DED57
:1049E000060B51EC100BFBF7F1FC9DED060B41ECB7
:1049F0001B0B53EC102B9DED020B51EC100BFBF736
:104A0000EBFC53EC1B2BFBF759FD53EC1A2BFBF77C
:104A1000DDFC9DED021B53EC112BFBF7D7FC53EC97
:104A2000192BFBF7D6FCCDE9020101EB065001156D
:104A30000029C8BF039015DC9DED020B324651ECF6
:104A4000100BFBF7C1FEFFF78BF9042808BF00F03D
:104A500013FD32469DED020B51EC100BFBF7B4FE3B
:104A6000CDE902019DED020B51EC180B53EC102B1C
:104A7000FBF7B2FCFFF73ABB0000904000000000DB
:104A8000FE822B654715973C00CC904000346F3F69
:104A900001FCFFFF0000E03FB81D0000FFFF0F001A
:104AA00000000000432EE63F396CA80C615C20BE7C
:104AB000EF39FAFE422EE63F581C000000000000CD
:104AC000000000000000004010B52F499FED2C1B96
:104AD0002DED020B84B0059820F000408842DCBF29
:104AE00000209DED040B32DD2849884209D104984D
:104AF00040B94FF0010000F0DFFC00F09DFC06B073
:104B000010BD05DB9DED040B00F082FC06B010BD6E
:104B100068469DED040B00F07BF810F0030011D007
:104B2000012818D09DED021B9DED000B02281AD024
:104B300000F08AFA51EC100B81F0004106B041EC14
:104B4000100B10BD9DED021B9DED000B012000F030
:104B5000AFFB06B010BD9DED021B9DED000B00F0FC
:104B600073FA06B010BD012000F0A2FB51EC100B4F
:104B700081F0004106B041EC100B10BD00000000B8
:104B80000000000000000000FB21E93F0000F07F72
:104B900000B52DED048BB0EE409AF0EE609A83B034
:104BA00051EC190BFBF727FE41EC180B18EE100A1D
:104BB00018EE901A8DED008B002818BF01200843D5
:104BC00020F00040C0F17F6000F1E040C00F14D041
:104BD00019EE101A19EE900A8DED009B002918BFEE
:104BE0000121084320F00040C0F17F6000F1E04067
:104BF000C00F04BF012000F05FFCB0EE480A03B014
:104C0000F0EE680ABDEC048B00BD0000000000005F
:104C10002DE9F14F04462DED020B2DED088B8AB0E6
:104C20009FEDE70B80ED020B139EE74826F0004551
:104C300085420ADC9DED120B002084ED000B0AB0CA
:104C4000BDEC088B03B0BDE8F08FE0489FEDE0AB12
:104C50009FEDE1BBA84247DDE14F9FEDE39B9FED58
:104C6000E48B9DED120B53EC1A2B51EC100B002E24
:104C70001CDDFBF7ABFB41EC100BBD4208D053EC45
:104C80001B2B51EC100BFBF7A1FBC4E900010BE05F
:104C900053EC192B51EC100BFBF798FB53EC182B32
:104CA000FBF794FBC4E900010120C8E7FBF7EDFA2C
:104CB00041EC100BBD4208D053EC1B2B51EC100BF8
:104CC000FBF7E3FAC4E900010BE053EC192B51ECBC
:104CD000100BFBF7DAFA53EC182BFBF7D6FAC4E902
:104CE00000014FF0FF30AAE7C348A84279DB9DEDF1
:104CF000120B51EC100B00F081FD41EC180B9FEDF5
:104D0000C00B53EC102BFBF767FB9FEDBF1B53EC65
:104D1000112BFBF7BAFAFBF7FBFD0746FBF7BCFDCF
:104D200041EC190B53EC1A2BFBF756FB53EC182BE9
:104D3000FBF74FFB41EC180B53EC1B2B51EC190B01
:104D4000FBF74AFBDFF8C8A241EC100B4FEA1558FD
:104D50000125FA4453EC102B51EC180BFBF736FBF2
:104D6000032DC4E900013DD0C1F30A5005EB451104
:104D7000A8EB00001139814234DA0AEB051BB0EED2
:104D800048AA9BED000BF0EE68AA53EC102B51ECF7
:104D9000190BFBF721FB41EC1B0B51EC1A0B53ECED
:104DA0001B2BFBF713FB41EC180B51EC1A0B53ECCC
:104DB000182BFBF70BFB53EC1B2BFBF707FB9BEDB7
:104DC000020B41EC1A0B53EC102B51EC190BFBF7B7
:104DD00003FB53EC1A2BFBF7F9FA41EC100B6D1C9B
:104DE000B8E70EE0002EA8BF3846BFF628AF94ED16
:104DF000000B51EC100B81F00041C4E90001784236
:104E00001DE7C6F3130040F4801EC6F30A50A0F25B
:104E1000F530471100F01F05C5F12000DDF848B05E
:104E200008900020069007900520EC467949002D57
:104E300007EB0002794408BF51F8221009D051F85D
:104E4000223001EB8201AB404A68089922FA01F155
:104E50001943A1FB0E26A1FB0B131A449A4234BF3F
:104E60000123002303EB06080CEB8003D3E901A622
:104E70000E448E4234BF0121002192448A4411B174
:104E8000924502D903E0924501D2012100E00021C0
:104E9000C3E901A641444CF82010011EA0F1010015
:104EA000C4DC029800F10050850F0298DDE9036729
:104EB0008000DDF81480FBF7EFFC41EC1A0B304664
:104EC000FBF76BFB9FED541B53EC112BFBF784FAA4
:104ED00041EC1B0B3846FBF760FB9FED511B53EC7D
:104EE000112BFBF779FA41EC180B4046FBF755FB09
:104EF0009FED4D1B53EC112BFBF76EFA41EC190B98
:104F000051EC180B53EC192BFBF7BFF953EC1B2B8F
:104F1000FBF7BBF953EC1A2BFBF7B7F9CDE9080106
:104F2000002008909DED080B53EC1A2B51EC100B50
:104F3000FBF74CFA53EC1B2BFBF748FA53EC182BFE
:104F4000FBF744FA53EC192BFBF743FA9FED381BA0
:104F500053EC112BFBF740FA9FED370B41EC180B8C
:104F600053EC102B9DED080B51EC100BFBF734FAB2
:104F700053EC182BFBF789F99FED310B41EC180B23
:104F800053EC102B9DED080B51EC100BFBF724FAA2
:104F900053EC182BFBF779F941EC100B139810F038
:104FA000004F06D06D4251EC100B81F0004141ECF6
:104FB000100B284684ED000B41E6000000000000C5
:104FC0000000000000000000FB21E93F7CD9024006
:104FD00000004054FB21F93F3163621A61B4D03DB7
:104FE000FB21F93F000000000000601A61B4D03DD1
:104FF0007370032E8A19A33BFB2139410000000086
:1050000083C8C96D305FE43F000000000000E03F4E
:10501000FA18000048180000000000000000103ED0
:10502000000000000000103C000000000000103AEA
:10503000182D4454FB21F93D3326A611460B113C93
:1050400000000054FB21F93D10B52DED040B2DEDB2
:10505000088B82B0B0EE419AF0EE619A0B9820F086
:1050600000449FED4BABB4F1795F11DA9DED0A0B73
:1050700051EC100BFBF74CFC002801BFB0EE4A0AC4
:10508000F0EE6A0A02B0BDEC088B04BF04B010BD9C
:105090009DED0A0B53EC102B51EC100BFBF79CF918
:1050A00041EC180B3C480621B0EE480AF0EE680AC5
:1050B000784400F081F853EC182B51EC100BFBF7FF
:1050C0008BF99DED0A0B41EC1B0B53EC192B51ECAA
:1050D000100BFBF781F941EC190B53EC1B2B51EC36
:1050E000180BFBF779F953EC192BFBF76FF99FEDD0
:1050F0002C0B41EC190B53EC102B51EC180BFBF75C
:105100006BF941EC100B2848844210DA53EC192B50
:1051100051EC100BFBF75AF953EC1A2BFBF759F92A
:1051200041EC100B02B0BDEC088B04B010BD1F4861
:10513000A042BCBF9FED1E1B8DED001B06DBA4F53E
:1051400000100190002000909DED001B51EC100B11
:1051500053EC112BFBF73AF99DED000B41EC180BCA
:1051600053EC102B51EC1A0BFBF730F941EC1A0BF6
:1051700053EC192B51EC180BFBF728F953EC1A2BB5
:10518000FBF727F941EC100BCCE700000000000012
:10519000000000000000F03F641500000000000067
:1051A000000000000000E03F3333D33F0000E93F40
:1051B000000000000000D23F70B504462DED028BC8
:1051C0004D1E00EBC500B0EE408AF0EE608A90ED17
:1051D000000B35F0060017D053EC182B51EC100BD8
:1051E000FBF7FAF841EC100B6D1E04EBC50090EDD7
:1051F000001B51EC100B53EC112BFBF746F841EC64
:10520000100B35F00600E7D1022D36D0042D1CD04E
:10521000062D1CBFBDEC028B70BD53EC182B51EC5E
:10522000100BFBF7D9F894ED0A1B53EC112BFBF78D
:105230002CF853EC182BFBF7CFF894ED081B53EC2C
:10524000112BFBF722F841EC100B53EC182B51EC0F
:10525000100BFBF7C1F894ED061B53EC112BFBF779
:1052600014F853EC182BFBF7B7F894ED040B53EC40
:10527000102BFBF70AF841EC100B53EC182B51ECF8
:10528000100BFBF7A9F894ED021B53EC112BFAF766
:10529000FCFF53EC182BFBF79FF894ED001B53EC2D
:1052A000112BFAF7F2FFBDEC028B41EC100B70BD35
:1052B00031B504462DED040B2DED0A8BB0EE41BA4D
:1052C000F0EE61BA0B989DED0A0B20F00040B0F1B2
:1052D000795F0DDA51EC100BFEF742FD042808BF90
:1052E00000F0CAF89DED0A0BBDEC0A8B05B030BD8D
:1052F00053EC102B51EC100BFBF76EF841EC180B34
:105300009DED0A0B53EC182B51EC100BFBF764F8D6
:1053100041EC190B2C48B0EE480AF0EE680A052162
:105320007844FFF749FF9FED2ACBB0EE40AAF0EE9C
:1053300060AA9CB353EC1C2B51EC190BFBF74CF8F7
:1053400041EC1C0B53EC1A2B51EC190BFBF744F8F6
:105350009FED210B41EC190B53EC102B51EC1B0B67
:10536000FBF73AF853EC192BFBF730F853EC182BFA
:10537000FBF732F853EC1B2BFBF728F853EC1C2BF4
:10538000FBF724F89DED0A1B53EC112BFBF721F8DA
:10539000BDEC0A8B05B041EC100B30BDFFE753ECC0
:1053A0001A2B51EC180BFBF717F853EC1C2BFAF7E0
:1053B0006CFF53EC192BFBF70FF89DED0A1B53EC18
:1053C000112BFAF762FFE3E7F4130000000000007E
:1053D000495555555555C5BF000000000000E03F38
:1053E0009FED070B10B553EC102B9FED070B51EC05
:1053F000100BFBF763F841EC100B10BD0000000030
:105400000000000000000000000000000000F03F6D
:1054100010B553EC102B51EC100BFAF736FF41ECA2
:10542000100B10BD10B553EC112B51EC100BFAF70B
:105430002CFF41EC100B10BD9FED050B10B553EC8C
:10544000102B51EC100BFBF739F841EC100B10BD91
:1054500000000000000000009FED050B10B553ECAC
:10546000102B51EC100BFAF7B7FF41EC100B10BDED
:1054700000000000000000709FED050B10B553EC1C
:10548000102B51EC100BFAF7A7FF41EC100B10BDDD
:10549000000000000000001002E008C8121F08C150
:1054A000002AFAD170477047002001E001C1121FA5
:1054B000002AFBD1704700000149086070470000D6
:1054C000600100202DE9FF4F8BB09A460F4605463C
:1054D000002606E025280BD052460D9990476D1CFA
:1054E000761C28780028F5D10FB03046BDE8F08F43
:1054F0000024A0460122604900E0044315F8013F62
:10550000203B02FA03F00842F7D128782E2817D161
:1055100015F8010F44F004042A280ED06FF02F0272
:105520002878A0F1300109290AD808EB880102EB9C
:10553000410100EB01086D1CF2E757F8048B6D1C6C
:10554000287869283ED006DC0028CDD063280BD00F
:10555000642804D136E0732810D075284BD0524609
:105560000D999047761C85E017F8040B8DF8000024
:1055700000208DF80100E946012003E057F8049B64
:105580004FF0FF3061074FF0000401D40AE0641CC3
:1055900044450DDA8442FADB19F804100029F6D1EB
:1055A00006E0641C8442FCDB19F804100029F8D1E1
:1055B000264404E019F8010B52460D999047641EE9
:1055C000F8D257E001CF4FF00A0B002802DA404230
:1055D0002D2102E0210504D52B218DF82410012175
:1055E00003E0E10705D02021F7E70DF1200908913C
:1055F0000CE00021F9E701CF4FF00A0BF9E759461B
:10560000FBF707F801F1300209F8012D0028F6D167
:10561000ADEB090000F1200B600701D44FF0010849
:10562000D84502DDA8EB0B0000E0002080460024F6
:1056300006E009A85246005D0D999047641C761C4F
:1056400008988442F5DB04E0302052460D999047DB
:10565000761CB8F10001A8F10108F5DC05E019F8A5
:10566000010B52460D999047761CBBF10001ABF13E
:10567000010BF4DC6D1C34E7092801000A68531C97
:105680000B601070704700002DE9F0430026B04613
:1056900085B00446C14628253746684600F0F2FE2C
:1056A000BDF9000000EE106A00EE900ABDF902009C
:1056B0007F1CF8EEE00AAF4230EE200A00EE900ABE
:1056C000BDF9040010EE106AF8EEE00A00EE108A50
:1056D00030EE200A00EE900A10EE108AF8EEE00A92
:1056E00000EE109A30EE200A10EE109AD5DB00EE94
:1056F000105A00EE906A01EE908AB8EEC00A80EE71
:10570000801A00EE105AB8EEC00AC1EE800A00EE10
:10571000105A01EE909A84ED001AB8EEC02A81EE7C
:10572000820ADFED131AC4ED010A84ED020AB5EE18
:10573000C00AF1EE10FA02DD30EE610A01E030EE4F
:10574000210A0C4884ED020A90ED040A21EE001AA9
:1057500060EE800A84ED001AC4ED010AD4ED020A5D
:1057600020EE800A84ED020A05B0BDE8F083000057
:10577000000080463800002070B51C4CF6EE001A80
:105780002DED028B064694ED130AD4ED140A0D4656
:1057900030EE201A70EEC00A21EE218AB2EE041A11
:1057A00080EE810A10EE100AFAF704FF9FED101B3D
:1057B00053EC112BFAF782FEFAF70FFF00EE100AF6
:1057C000A06BB0F17E5F02DC00EE900A03E0DFED3B
:1057D0000A0AC4ED0E0A28EE201A20EE200A85EDF2
:1057E000001A86ED000ABDEC028B70BDCC000020D3
:1057F00012E7FAA146DF913F0000000082B0CDE938
:10580000000121F0004001909DED000B02B051EC31
:10581000100B70472DE9F04102252DED068BB0EEFF
:10582000408A0F4690ED020ADFED2E8A10EE100A34
:105830002D4E2E4CB0F1804F10DAB5EEC00AF1EECD
:1058400010FA0BDD94ED000A30EE080A10EE100A93
:1058500084ED000AB04203DD012501E0C4ED008AB9
:105860007868FAF7A7FE9FED22AB41EC100BB0EE83
:105870004A1AF0EE6A1AFEF7FFFAB0EE409AF0EE1E
:10588000609A3868FAF796FE41EC100BB0EE4A1AAF
:10589000F0EE6A1AFEF7F0FA53EC192B51EC100BEC
:1058A000FAF7F3FC41EC100BFFF772F951EC100B17
:1058B000FAF793FE104A042190420BDA94ED010AA4
:1058C00030EE080A10EE100A84ED010AB04203DD42
:1058D000032101E0C4ED018A15FB01F0BDEC068B4C
:1058E000BDE8F08100000000CDCCCC3D30000020B0
:1058F00000000000000000400AD7233C10B5044619
:105900002DED028BF0EE408A9FED198AFFF782FFA2
:105910001849032807D0042805D00022062816D0ED
:10592000082820D113E04868401C486094ED020A22
:10593000D1ED020A70EE200A00EE100AC1ED020A53
:10594000B8EE400A80EE801A81ED031A0BE04A603F
:1059500081ED028AF0EE680A91ED030A204600F01C
:105960000BF8B0EE408AB0EE480ABDEC028B10BDD9
:105970000000000018000020D0ED021A0D48F6EEDD
:10598000002A9FED0B2A90ED001AC0ED001A10EED0
:10599000900A31EE811AB0F17E5F21EE221A01DD0C
:1059A000F0EE420A31EE400A20EE200A7047000075
:1059B00000000000180000202DED0C8B88B0FCF7D3
:1059C0000BF9FDF709FEFDF7BBFA4FF0000B5C4643
:1059D000FE48016841F40011016000685A4600F475
:1059E0000010009006210B20FCF756F90B20FCF765
:1059F00045F9F848F6494FF480450160F649C0E999
:105A00000114C0E9034544618461C4610462FBF789
:105A100019FDFDF727FBEF48F04994304FF4E136CC
:105A20000160C0E901640C27C460C0E904478461D7
:105A3000C461FCF75FFEE748E949D4300160C0E982
:105A40000164C460C0E904478461C461FCF752FE8C
:105A5000E04804215430FCF79FFDDE480821543013
:105A6000FCF79AFDDFF894A30123DEA2E0A1DAF8A7
:105A70000800FAF7E5FF0026E14CAF104FF400589C
:105A80004FF4004939462046FBF7C7FC4146204603
:105A9000FBF7C3FC29462046FBF7BFFC49462046DE
:105AA000FBF7BBFC4FF4FA70FBF78EFB761C062E5F
:105AB000E8DBC848FDF73CFA5E468DF818B04FF0B9
:105AC000010B06AAD020CDE9002B0390642102919E
:105AD0005B467522BF480399FBF7C8FD9DF8180087
